:020000040000FA
:0400000014EF00F009
:060008000482A6ED00F0E9
:100018000480E0CF01F000F001C0E0FF0490100080
:10002800A1EF00F092EC00F09EAA1DEF00F01FEF88
:1000380000F025EF00F0AECF02F002C08AFF000EFC
:10004800AE6E03500218D8B42CEF00F02EEF00F07B
:1000580018EF00F0ACA233EF00F035EF00F018EF26
:1000680000F00228036E3A0E0318D8A43EEF00F001
:1000780040EF00F042EF00F0300E036E7B0E0318E5
:10008800D8A449EF00F04BEF00F04DEF00F0610EFF
:10009800036E5B0E0318D8A454EF00F056EF00F07F
:1000A80058EF00F0410E036E2F0E03645EEF00F070
:1000B80060EF00F068EF00F0390E036466EF00F0BF
:1000C80068EF00F088EF00F0600E03646EEF00F058
:1000D80070EF00F078EF00F07A0E036476EF00F02E
:1000E80078EF00F088EF00F0400E03647EEF00F038
:1000F80080EF00F08EEF00F05B0E036086EF00F0FB
:1001080088EF00F08EEF00F003C0ADFF02C003F0EF
:1001180018EF00F018EF00F014EF00F00F0EC11206
:10012800949C948E2A0EAF6EAC84B886AC9CAC8A34
:10013800AC98AB8EAB9CAB88120004900492000183
:0C01480016EF00F0060000F00492110019
:020000040020DA
:08000000FFFFFFFFFFFFFFFF00
:020000040030CA
:0E000000FF02181EFF8281FF0FC00FE00F40AD
:00000001FF
